{
  "contractName": "Lunch",
  "abi": [
    {
      "constant": true,
      "inputs": [],
      "name": "totalCost",
      "outputs": [
        {
          "name": "",
          "type": "uint256"
        }
      ],
      "payable": false,
      "stateMutability": "view",
      "type": "function"
    },
    {
      "constant": true,
      "inputs": [
        {
          "name": "",
          "type": "address"
        }
      ],
      "name": "attendeeJoined",
      "outputs": [
        {
          "name": "",
          "type": "bool"
        }
      ],
      "payable": false,
      "stateMutability": "view",
      "type": "function"
    },
    {
      "constant": true,
      "inputs": [],
      "name": "organizer",
      "outputs": [
        {
          "name": "",
          "type": "address"
        }
      ],
      "payable": false,
      "stateMutability": "view",
      "type": "function"
    },
    {
      "constant": true,
      "inputs": [],
      "name": "limit",
      "outputs": [
        {
          "name": "",
          "type": "uint256"
        }
      ],
      "payable": false,
      "stateMutability": "view",
      "type": "function"
    },
    {
      "constant": true,
      "inputs": [],
      "name": "numOfAttendee",
      "outputs": [
        {
          "name": "",
          "type": "uint256"
        }
      ],
      "payable": false,
      "stateMutability": "view",
      "type": "function"
    },
    {
      "inputs": [],
      "payable": false,
      "stateMutability": "nonpayable",
      "type": "constructor"
    },
    {
      "constant": false,
      "inputs": [
        {
          "name": "newTotalCost",
          "type": "uint256"
        }
      ],
      "name": "changeTotalCost",
      "outputs": [],
      "payable": false,
      "stateMutability": "nonpayable",
      "type": "function"
    },
    {
      "constant": false,
      "inputs": [],
      "name": "attend",
      "outputs": [
        {
          "name": "",
          "type": "bool"
        }
      ],
      "payable": true,
      "stateMutability": "payable",
      "type": "function"
    },
    {
      "constant": true,
      "inputs": [],
      "name": "getAvailable",
      "outputs": [
        {
          "name": "",
          "type": "uint256"
        }
      ],
      "payable": false,
      "stateMutability": "view",
      "type": "function"
    },
    {
      "constant": true,
      "inputs": [
        {
          "name": "people",
          "type": "address"
        }
      ],
      "name": "checkAttendance",
      "outputs": [
        {
          "name": "",
          "type": "bool"
        }
      ],
      "payable": false,
      "stateMutability": "view",
      "type": "function"
    },
    {
      "constant": true,
      "inputs": [],
      "name": "splitCost",
      "outputs": [
        {
          "name": "",
          "type": "uint256"
        }
      ],
      "payable": false,
      "stateMutability": "view",
      "type": "function"
    }
  ],
  "bytecode": "0x608060405234801561001057600080fd5b50336000806101000a81548173ffffffffffffffffffffffffffffffffffffffff021916908373ffffffffffffffffffffffffffffffffffffffff160217905550600a600381905550600060028190555060646004819055506104ed806100786000396000f3fe60806040526004361061009e576000357c01000000000000000000000000000000000000000000000000000000009004806307df1e52146100a35780633c5e6c971461010c5780635e315d3b1461013757806361203265146101a0578063a4d66daf146101f7578063bc1af74014610222578063d5c678aa1461025d578063d72c557714610288578063d929683f146102aa578063f9cc0605146102d5575b600080fd5b3480156100af57600080fd5b506100f2600480360360208110156100c657600080fd5b81019080803573ffffffffffffffffffffffffffffffffffffffff169060200190929190505050610300565b604051808215151515815260200191505060405180910390f35b34801561011857600080fd5b50610121610356565b6040518082815260200191505060405180910390f35b34801561014357600080fd5b506101866004803603602081101561015a57600080fd5b81019080803573ffffffffffffffffffffffffffffffffffffffff16906020019092919050505061035c565b604051808215151515815260200191505060405180910390f35b3480156101ac57600080fd5b506101b561037c565b604051808273ffffffffffffffffffffffffffffffffffffffff1673ffffffffffffffffffffffffffffffffffffffff16815260200191505060405180910390f35b34801561020357600080fd5b5061020c6103a1565b6040518082815260200191505060405180910390f35b34801561022e57600080fd5b5061025b6004803603602081101561024557600080fd5b81019080803590602001909291905050506103a7565b005b34801561026957600080fd5b5061027261040d565b6040518082815260200191505060405180910390f35b610290610413565b604051808215151515815260200191505060405180910390f35b3480156102b657600080fd5b506102bf61049c565b6040518082815260200191505060405180910390f35b3480156102e157600080fd5b506102ea6104b3565b6040518082815260200191505060405180910390f35b6000600160008373ffffffffffffffffffffffffffffffffffffffff1673ffffffffffffffffffffffffffffffffffffffff16815260200190815260200160002060009054906101000a900460ff169050919050565b60045481565b60016020528060005260406000206000915054906101000a900460ff1681565b6000809054906101000a900473ffffffffffffffffffffffffffffffffffffffff1681565b60035481565b6000809054906101000a900473ffffffffffffffffffffffffffffffffffffffff1673ffffffffffffffffffffffffffffffffffffffff163373ffffffffffffffffffffffffffffffffffffffff161415156104025761040a565b806004819055505b50565b60025481565b600060035460025410151561042b5760009050610499565b60018060003373ffffffffffffffffffffffffffffffffffffffff1673ffffffffffffffffffffffffffffffffffffffff16815260200190815260200160002060006101000a81548160ff021916908315150217905550600260008154809291906001019190505550600190505b90565b60006002546004548115156104ad57fe5b04905090565b60006002546003540390509056fea165627a7a723058205d92538666a798856ace9731e80026b9289fc4dbbd0150ec95ab785043b015bd0029",
  "source": "pragma solidity ^0.5.1;\n\n\ncontract Lunch {\n    \n address public organizer;\n mapping(address => bool) public attendeeJoined;\n uint256 public numOfAttendee;\n uint256 public limit;\n uint256 public totalCost;\n \n \n constructor() public {\n    organizer = msg.sender;\n    limit = 10;\n    numOfAttendee = 0;\n    totalCost = 100;\n}\n\nfunction changeTotalCost(uint newTotalCost) public {\n    if (msg.sender != organizer) { return; }\n    totalCost = newTotalCost;\n}\n\nfunction attend() public payable returns (bool) {\n    if (numOfAttendee >= limit) { return false; }\n    attendeeJoined[msg.sender] = true;\n    numOfAttendee++;\n    return true;\n}\n\nfunction getAvailable() public view returns (uint) {\n    return limit - numOfAttendee;\n}\n\nfunction checkAttendance(address people) public view returns (bool) {\n    return attendeeJoined[people];\n}\n\nfunction splitCost() public view returns (uint) {\n    return totalCost / numOfAttendee;\n}\n\n    \n}",
  "sourcePath": "/home/nitish/Documents/Projects/Blockchain/lunch-contract/contracts/Lunch.sol",
  "compiler": {
    "name": "solc",
    "version": "0.5.1+commit.c8a2cb62.Emscripten.clang"
  },
  "schemaVersion": "3.0.9",
  "updatedAt": "2019-05-29T11:38:42.054Z",
  "devdoc": {
    "methods": {}
  },
  "userdoc": {
    "methods": {}
  }
}